:1000000059C1000087C1000085C1000083C1000004
:1000100081C100007FC100007DC100007BC10000E4
:1000200079C1000077C1000075C1000073C10000F4
:1000300071C100006FC100006DC100006BC1000004
:1000400069C1000067C1000065C1000063C1000014
:1000500022C500005FC100005DC10000A8C600000D
:1000600059C10000E2C40000B7C4000053C1000041
:1000700051C100004FC100004DC100004BC1000044
:1000800049C1000047C1000045C1000043C1000054
:1000900041C100003FC100003DC100003BC1000064
:1000A00039C1000037C1000035C1000033C1000074
:1000B00031C100002FC100002DC100002BC1000084
:1000C00029C1000027C1000025C1000023C1000094
:1000D00021C100001FC100001DC100001BC10000A4
:1000E00019C10000BC08C00B0F09C00B2D093E0947
:1000F0004F09BF09C00BC00BF209040A270A4A0ABC
:10010000560AC00BC00BC00BA30AC90AD50ADD0AE8
:10011000310B510B600BC00B910BC00BC00BC00B14
:10012000C00BC00BC00BC00B0F09C00B2D093E0943
:100130004F09BF09C00BC00BF209040A270A4A0A7B
:10014000560AC00BC00BC00BA30AC90AD50ADD0AA8
:10015000310B510B600BC00B910B1B0E210C6A0D68
:10016000A30DCF0D510C210D460D3D0EF50D910542
:100170009405830587058D05CB0598059C05A2058B
:10018000A605AA05B005B405B805CB05BE05C20590
:10019000C60500002100240027002A002D003000A1
:1001A000330001010000040107010A0100002200E0
:1001B000250028002B002E00310034000201000031
:1001C000050108010B010000200023002600290082
:1001D0002C002F003200000100000301060109017C
:1001E00005050505070508080808020202020A0AB3
:1001F00008080404040401010101010101010303D1
:10020000030303030303040707070C0C0C0C0C0C7B
:100210000C0C0202020206060606060606060B0B78
:100220000B0B0B0B0B0B01021020200808102040B9
:1002300010204080020102010804020101020408AA
:100240001020408080402010080402018004020138
:100250008040201008040201080402010102040881
:1002600010204080010204081020408000000A0B8A
:1002700002090C0D0E080703040100000000000035
:10028000000000000000000000000000000000006E
:10029000000000000000000012111000000000002B
:1002A000000000000000000000000000000000004E
:1002B0000000400E11241FBECFEFD1E2DEBFCDBF44
:1002C00000E00CBF12E0A0E0B2E0ECE8F7E200E0F2
:1002D0000BBF02C007900D92A833B107D9F723E0F6
:1002E000A8E3B2E001C01D92A336B207E1F711E026
:1002F000CAE5D1E000E006C021970109802FFE0188
:100300000E94DD10C935D10780E00807A9F799D50B
:100310000C94C41375CECF92DF92EF92FF920F939D
:100320001F93CF93DF936C017A018B01C0E0D0E083
:10033000CE15DF0581F0D8016D918D01D601ED91CB
:10034000FC910190F081E02DC6011995892B11F0E7
:100350002196EECF7E01C701DF91CF911F910F91C2
:10036000FF90EF90DF90CF900895089580E090E0A7
:100370000895FC01538D448D252F30E0842F90E0AB
:10038000821B930B541710F0CF9608950197089590
:10039000FC01918D828D981761F0828DDF01A80F8D
:1003A000B11D5D968C91928D9F5F9F73928F90E0AF
:1003B00008958FEF9FEF0895FC01918D828D98171E
:1003C00031F0828DE80FF11D858D90E008958FEF5B
:1003D0009FEF0895FC01918D228D892F90E0805C24
:1003E0009F4F821B91098F739927089581EB92E0AB
:1003F000F1DF21E0892B09F420E0822F0895FC0130
:10040000848DDF01A80FB11DA35ABF4F2C91848D9D
:1004100090E001968F739927848FA689B7892C93D2
:10042000A089B1898C91837080648C93938D848D25
:10043000981306C00288F389E02D80818F7D808328
:100440000895EF92FF920F931F93CF93DF93EC01E8
:1004500081E0888F9B8D8C8D981305C0E889F98980
:10046000808185FD25C0F62E0B8D10E00F5F1F4F9C
:100470000F731127E02E8C8DE8120BC00FB607FC0E
:10048000FACFE889F989808185FFF5CFCE01B7DF02
:10049000F2CF8B8DFE01E80FF11DE35AFF4FF08282
:1004A0009FB7F8940B8FEA89FB89808180620AC02C
:1004B0009FB7F894EE89FF896083E889F989808184
:1004C0008370806480839FBF81E090E0DF91CF9153
:1004D0001F910F91FF90EF900895CF93DF93EC0160
:1004E000888D8823C1F0EA89FB89808185FD05C05C
:1004F000A889B9898C9186FD0EC00FB607FCF5CF8F
:10050000808185FFF2CFA889B9898C9185FFEDCFD5
:10051000CE0175DFE8CFDF91CF91089580E090E0C4
:10052000892B19F063DF811125C080E090E0892BD1
:1005300041F080E090E0892B21F00E9400008111C1
:100540001CC080E090E0892B41F080E090E0892B96
:1005500021F00E940000811113C080E090E0892BFF
:10056000A1F080E090E0892B81F00E9400008111D1
:100570000AC008950E940000D8CF0E940000E1CF79
:100580000E940000EACF0C9400000895CF93DF93FF
:10059000C0914002D09141028091000290910102ED
:1005A000C83CD1059CF58A3091050CF45EC0809161
:1005B0003C0290913D02A0913E02B0913F02892BF6
:1005C0008A2B8B2B81F461E083E07BD381E090E088
:1005D000A0E0B0E080933C0290933D02A0933E02E5
:1005E000B0933F0210C060E083E06BD310923C02F6
:1005F00010923D0210923E0210923F022196D0933B
:100600004102C093400281E090E030C0C83522E052
:10061000D20724F48530910554F627C0C83E23E064
:10062000D2072CF4843091050CF0C1CF1EC0C03429
:1006300026E0D207B4F0C03428E3D2072CF482308D
:1006400091050CF0B4CF11C0C8392AE3D2074CF0A1
:10065000C8322CE3D2072CF0C83B2DE3D2070CF0B4
:10066000A2CF833091050CF0A2CF019690930102A6
:1006700080930002DF91CF9108958091380290918C
:100680003902A0913A02B0913B02892B8A2B8B2B25
:10069000A9F489E016D361E087E013D361E088E034
:1006A00010D381E090E0A0E0B0E080933802909316
:1006B0003902A0933A02B0933B02089589E001D336
:1006C00061E087E0FED260E088E0FBD21092380261
:1006D0001092390210923A0210923B020895CF9282
:1006E000DF92EF92FF926B017C0180913802909132
:1006F0003902A0913A02B0913B026C2D892B8A2BD2
:100700008B2BA9F486E0DDD261E084E0DAD261E0EF
:1007100085E0D7D281E090E0A0E0B0E0809338029D
:1007200090933902A0933A02B0933B022CC086E02A
:10073000C8D261E084E0C5D260E085E0C2D2109208
:1007400038021092390210923A0210923B028091C4
:100750007B0290917C02A0917D02B0917E02CA94AE
:10076000CD28CE28CF2821F40196A11DB11D03C0AC
:100770000197A109B10980937B0290937C02A09319
:100780007D02B0937E02FF90EF90DF90CF900895AE
:100790009B01AC0160E070E882E995E40E942F0FB4
:1007A0000E94970FF9C19B01AC0160E07CE782E9F0
:1007B00096E40E942F0F0E94970FEEC10E94E51051
:1007C0008091690290916A02A0916B02B0916C02D3
:1007D0000097A105B105C1F122E02093910281307B
:1007E0009105A105B10519F560E082E06AD28DE3BB
:1007F00040D2892B09F4CACE80917F029091800269
:10080000A0918102B0918202892B8A2B8B2B11F44B
:10081000109291021092690210926A0210926B0279
:1008200010926C02109241021092400208950297B9
:10083000A105B10509F0CFC061E082E042D286E3B4
:1008400018D2892BC9F6A2CE809146029091470218
:10085000A0914802B0914902181619061A061B0603
:1008600014F582309105A105B10509F446C0833025
:100870009105A105B10509F45EC00197A105B10577
:1008800009F0A9C087E3F5D1892B21F460E070E07D
:10089000CB013BC085E4EDD1892B61F561E070E0CF
:1008A00080E090E03AC080917202882309F47CC015
:1008B00040917B0250917C0260917D0270917E029A
:1008C0008091730290917402A0917502B0917602AA
:1008D00084179507A607B707CCF2481759076A0788
:1008E0007B077CF01092720280914E028656823015
:1008F00008F071C010929102089587E3BAD1892B54
:1009000029F061E070E080E090E0E9CE85E4B1D1CB
:10091000892B21F060E070E0CB01AFCE83E090E066
:10092000A0E0B0E08093460290934702A093480273
:10093000B0934902089587E39CD1892B09F4A6CF8F
:1009400085E497D1892B09F4A9CF10927B021092EC
:100950007C0210927D0210927E021092730210921D
:100960007402109275021092760210924602109252
:10097000470210924802109249021092910281E0BF
:1009800090E0A0E0B0E08093690290936A02A093A7
:100990006B02B0936C0280936D0290936E02A093F1
:1009A0006F02B093700208958091420290914302C9
:1009B000A0914402B09145020097A105B10559F0FC
:1009C00081309105A105B10509F4A4CF0297A105D5
:1009D000B10509F463CF08951F920F920FB60F92DD
:1009E00011240BB60F922F933F934F935F936F9306
:1009F0007F938F939F93AF93BF93EF93FF9381EB7D
:100A000092E0FDDCFF91EF91BF91AF919F918F91AB
:100A10007F916F915F914F913F912F910F900BBEFE
:100A20000F900FBE0F901F9018951F920F920FB648
:100A30000F9211240BB60F922F938F939F93EF93E6
:100A4000FF93E091C102F091C2028081E091C70260
:100A5000F091C80282FD12C090818091CA028F5F1E
:100A60008F732091CB02821751F0E091CA02F0E01F
:100A7000EF54FD4F958F8093CA0201C08081FF9192
:100A8000EF919F918F912F910F900BBE0F900FBE02
:100A90000F901F9018951F920F920FB60F9211246E
:100AA0000BB60F922F933F934F935F936F937F9368
:100AB0008F939F93AF93BF93EF93FF93E091AF0218
:100AC000F091B0021995FF91EF91BF91AF919F9175
:100AD0008F917F916F915F914F913F912F910F90E7
:100AE0000BBE0F900FBE0F901F90189590E0FC0169
:100AF0003197E231F10508F04EC08827E954FF4FE5
:100B00008F4F0C94DD10809180008F7703C080910F
:100B100080008F7D80938000089580918000877F82
:100B2000F9CF84B58F7702C084B58F7D84BD0895D9
:100B30008091B0008F7703C08091B0008F7D80934B
:100B4000B0000895809190008F7707C08091900049
:100B50008F7D03C080919000877F809390000895DF
:100B60008091A0008F7707C08091A0008F7D03C087
:100B70008091A000877F8093A0000895809120013C
:100B80008F7707C0809120018F7D03C08091200165
:100B9000877F809320010895DC01CB0163E0880FFB
:100BA000991FAA1FBB1F6A95D1F7009721E0A207E2
:100BB000B10514F421E00DC053E0B595A7959795C4
:100BC00087955A95D1F7009721E0A207B10524F443
:100BD00022E02093AD0231C043E0B595A7959795EB
:100BE00087954A95D1F7009721E0A207B10514F443
:100BF00023E0EFCF32E0B595A795979587953A9585
:100C0000D1F7009721E0A207B10514F424E0E1CF69
:100C100022E0B595A795979587952A95D1F70097E6
:100C200021E0A207B10514F425E0D3CF85E080933D
:100C3000AD028FEF9FEFA0E0B0E02FB72093AE02A0
:100C4000F8949093AC028093AB02909387008093CA
:100C500086008091AE028FBF80918100887F809353
:100C60008100909181008091AD02892B8093810059
:100C70000895CF93DF93282F30E0F901E459FD4F19
:100C80008491F901EA5DFD4FD491F901E052FE4FE4
:100C9000C491CC2389F0811129DFEC2FF0E0EE0F15
:100CA000FF1FEA53FE4FA591B491EC91ED2381E033
:100CB00090E021F480E002C080E090E0DF91CF91ED
:100CC00008951F93CF93DF93282F30E0F901E45963
:100CD000FD4F8491F901EA5DFD4FD491F901E05295
:100CE000FE4FC491CC23B9F0162F8111FFDEEC2FFB
:100CF000F0E0EE0FFF1FE455FE4FA591B4919FB7B2
:100D0000F894111104C08C91D095D82302C0EC91B5
:100D1000DE2BDC939FBFDF91CF911F910895CF937E
:100D2000DF9390E0FC01EA5DFD4F2491FC01E0526D
:100D3000FE4F8491882361F190E0880F991FFC0198
:100D4000EE56FE4FC591D491FC01E455FE4FA5919E
:100D5000B491611109C09FB7F894888120958223CE
:100D60008883EC912E230BC0623061F49FB7F89416
:100D70008881322F309583238883EC912E2B2C93FE
:100D80009FBF06C08FB7F894E8812E2B28838FBFB2
:100D9000DF91CF9108952FB7F89460915F03709120
:100DA000600380916103909162032FBF08951F92A9
:100DB0000F920FB60F9211242F933F938F939F930F
:100DC000AF93BF9380915F0390916003A091610303
:100DD000B091620330915E0323E0230F2D3720F49E
:100DE0000196A11DB11D05C026E8230F0296A11D85
:100DF000B11D20935E0380935F0390936003A093E3
:100E00006103B093620380915A0390915B03A091B8
:100E10005C03B0915D030196A11DB11D80935A033F
:100E200090935B03A0935C03B0935D03BF91AF917C
:100E30009F918F913F912F910F900FBE0F901F9018
:100E40001895CF93DF93CDB7DEB728970FB6F894F8
:100E5000DEBF0FBECDBF789484B5826084BD84B5FB
:100E6000816084BD85B5826085BD85B5816085BDA5
:100E700080916E00816080936E001092810080915D
:100E800081008260809381008091810081608093E5
:100E90008100809180008160809380008091B1000A
:100EA00084608093B1008091B00081608093B00035
:100EB0008091910082608093910080919100816087
:100EC0008093910080919000816080939000809148
:100ED000A10082608093A1008091A1008160809335
:100EE000A1008091A00081608093A00080912101E9
:100EF0008260809321018091210181608093210192
:100F00008091200181608093200180917A0084602B
:100F100080937A0080917A00826080937A00809139
:100F20007A00816080937A0080917A008068809353
:100F30007A001092C10060E087E3F1DE61E087E3B0
:100F4000C0DE61E083E0EBDE61E082E0E8DE61E0EC
:100F50008AE0E5DE61E08AE0B4DE61E084E0DFDEC5
:100F600061E085E0DCDE61E086E0D9DE61E088E01A
:100F7000D6DE61E089E0D3DE61E087E0D0DE61E0CB
:100F800087E09FDE60E085E4CADE61E085E499DE0B
:100F900060E08DE3C4DE61E08DE393DE61E084E434
:100FA000BEDE60E084E48DDE61E08CE3B8DE61E00B
:100FB00083E4B5DE61E08AE3B2DE61E08BE3AFDEBD
:100FC00060E08CE37EDE60E083E47BDE60E08AE369
:100FD00078DE60E08BE375DE10929A028FEF8093EB
:100FE0009102E091C102F091C20282E08083E0911F
:100FF000BD02F091BE021082E091BF02F091C002EA
:101000008FEC80831092C902E091C502F091C60274
:1010100086E08083E091C302F091C4028081806108
:101020008083E091C302F091C40280818860808354
:10103000E091C302F091C402808180688083E091D6
:10104000C302F091C40280818F7D80831092800062
:1010500080E18093810068E270E080E090E09CDDB8
:1010600080EE93E09093B0028093AF0281E0809392
:101070006F00909181008091AD02892B8093810057
:1010800000912F02209130022F8330913102388756
:10109000109132020D832E83232E312E82E0482EB2
:1010A000512C612C712C812C912C5401839481EB57
:1010B00092E090D9181619060CF0B1C381EB92E0BA
:1010C00067D92091A9023091AA02F901E356FD4F98
:1010D00080832F5F3F4F3093AA022093A9022230D2
:1010E0003105B4F0319790819A3F91F4853581F4C0
:1010F0002230310569F090939D0280939E0282E038
:1011000090E09093AA028093A90281E080939B02D1
:101110008091A9029091AA020C970CF480C31092BE
:10112000AA021092A90280919D028A3F09F077C31A
:1011300080919E02853509F072C38CE0EDE9F2E002
:10114000A3E8B2E001900D928A95E1F786E892E07B
:10115000E2D56B017C01E09185028E2F90E0FC01CD
:10116000E054F109EB33F10508F00AC38827EE5883
:10117000FF4F8F4F0C94DD1080910A02882309F4F1
:10118000FFC280E480934E02C601009709F4F8C2C2
:101190008330910529F460E070E086E193E420C09B
:1011A0008430910529F460E070E086E193E42DC07D
:1011B000A5E0CA1AD108B2E0CB16D10430F460E53C
:1011C00070E080E090E0E8DCDBC28730910591F4CC
:1011D00060914E0370914F038091500390915103A1
:1011E000D7DA8092690290926A02A0926B02B09262
:1011F0006C02C6C2089709F0C3C260914E03709199
:101200004F038091500390915103C2DA40926902DA
:1012100050926A0260926B0270926C02B1C282E6D6
:1012200080934E0210920A0210924A0210924B02D0
:1012300010924C0210924D02C0927702D092780226
:10124000E0927902F0927A0280927F02909280027C
:10125000A0928102B092820270C121E6C2162AEEEB
:10126000D206E104F10408F08BC2C0925D02D09274
:101270005E02E0925F02F092600282C231E6C31623
:101280003AEED306E104F10408F07AC2C092650296
:10129000D0926602E0926702F092680271C286E61E
:1012A00080934E0260E070E086E992E47CDA10926E
:1012B0000A028091770290917802A0917902B09110
:1012C0007A0280934A0290934B02A0934C02B0930F
:1012D0004D0280917B0290917C02A0917D02B091A1
:1012E0007E028093770290937802A0937902B09364
:1012F0007A024091060250910702609108027091B3
:101300000902481759076A077B074CF44093770294
:10131000509378026093790270937A0211C08C30F6
:101320009E4FAF4FBF4F64F48CE09EEFAFEFBFEF27
:101330008093770290937802A0937902B0937A0217
:1013400089E090E0A0E0B0E080937F02909380027B
:10135000A0938102B09382026091110270911202F7
:10136000809113029091140213DA80926902909294
:101370006A02A0926B02B0926C0281E0E1C087E643
:1013800080934E02C0927302D0927402E092750272
:10139000F092760281E080937202809391028091B4
:1013A000060290910702A0910802B09109028C15E3
:1013B0009D05AE05BF056CF09CE0C9169EEFD906F1
:1013C0009FEFE906F9060CF0DBC18CE09EEFAFEF72
:1013D000BFEF8093730290937402A0937502B09351
:1013E0007602CEC191EFC91699E4D90692E0E906DA
:1013F000F10408F0C5C1C0926102D0926202E0928D
:101400006302F0926402BCC1A5E6CA16D104E104ED
:10141000F10408F0B5C1C701B601BCD520E030E049
:1014200048EC52E41CD520E030E044E952E462D6B6
:1014300020E030E040E85FE3AAD479D5609315025C
:1014400070931602809317029093180299C1B5E623
:10145000CB16D104E104F10408F092C1C701B60132
:1014600099D520E030E048EC52E4F9D420E030E0B7
:1014700044E952E43FD620E030E040E85FE387D41F
:1014800056D560930B0270930C0280930D029093DB
:101490000E0276C11C141D041E041F0424F481E0F6
:1014A000809371026DC1109271026AC18EE68093C1
:1014B0004E0210920A024091770250917802609198
:1014C000790270917A0280914A0290914B02A09128
:1014D0004C02B0914D0240934A0250934B026093EC
:1014E0004C0270934D02C416D506E606F7064CF082
:1014F000C0927702D0927802E0927902F0927A025A
:1015000014C09A01281B390BC901092E000CAA0B23
:10151000BB0B840F951FA61FB71F80937702909374
:101520007802A0937902B0937A0240927F0250929F
:101530008002609281027092820281E08093720246
:10154000809391021DC182E780934E0281E08093D7
:10155000910231E0C316D104E104F10429F460E002
:1015600070E082ED92E40BC082E0C816D104E10481
:10157000F10409F005C160E070E088E492E413D959
:10158000C0924602D0924702E0924802F09249028D
:10159000F7C083E780934E02C0920602D092070202
:1015A000E0920802F0920902EBC084E780934E02B9
:1015B000D0921002C0920F02E3C0C114D104E10422
:1015C000F10429F460E08AE37CDB61E00AC091E089
:1015D000C916D104E104F10431F461E08AE371DB5E
:1015E00060E08BE35CC0A2E0CA16D104E104F10420
:1015F00079F460E08AE365DB60E08BE362DB109204
:101600004202109243021092440210924502B8C066
:10161000B3E0CB16D104E104F10471F460E070E0B2
:1016200080E291E4C0D88092420290924302A0925C
:101630004402B0924502A4C024E0C216D104E104E1
:10164000F10409F09DC060E070E080E291E4ABD865
:1016500040924202509243026092440270924502CC
:101660008FC0C114D104E104F10411F460E007C09B
:1016700031E0C316D104E104F10429F461E08CE304
:1016800020DB61E00BC082E0C816D104E104F10464
:1016900009F076C060E08CE314DB60E083E411DBEA
:1016A0006FC095E6C916D104E104F10408F068C0E2
:1016B00020E030E040E85FE36D817E81C1010FC032
:1016C000A5E6CA16D104E104F10408F059C020E0EF
:1016D00030E040E85FE3602F7F818885912F56D30B
:1016E00069837A838B839C83C701B60153D420E03E
:1016F00030E048EC52E4B3D39B01AC0169817A81BC
:101700008B819C81F7D420E030E040E85FE33FD359
:10171000609311027093120280931302909314024B
:101720002FC0C701B60136D424EA30E74DE35FE3AA
:10173000E1D420E030E040E85FE329D3F8D36B0147
:101740007C01161617061806190684F423D420E027
:1017500030E046E952E47FD3181644F0C09202020A
:10176000D0920302E0920402F0920502609102021C
:101770007091030280910402909105020BD413D85A
:101780002AEF20938F0295E5909390028AE7809349
:101790009C0220934F02909350029091910290935B
:1017A000510210925202109253021092540210925F
:1017B000550210925602109257021092580210923F
:1017C000590290919A0290935A0290919B029093A1
:1017D0005B0280935C0280917E028F9380917D02F8
:1017E0008F9380917C028F9380917B028F9323E370
:1017F00032E03F932F9382E592E09F938F93E9D459
:101800004EE050E06FE472E081EB92E00E948B01C9
:1018100010929B020FB6F894DEBF0FBECDBF809131
:101820007F0290918002A0918102B09182028A3061
:10183000910508F022C2FC018827E355FF4F8F4F26
:10184000BCC48091770290917802A0917902B09106
:101850007A0240917B0250917C0260917D027091EE
:101860007E02481759076A077B07B1F0809373021D
:1018700090937402A0937502B093760281E08093F6
:101880007202609115027091160280911702909178
:10189000180280D30E94D30385E090E0A0E0B0E07E
:1018A00075C140917B0250917C0260917D027091E4
:1018B0007E028091730290917402A0917502B091A2
:1018C0007602481759076A077B0709F0D6C185E0F9
:1018D0008093910280917102882309F4CEC15BDA72
:1018E0006093520370935303809354039093550372
:1018F0006091110270911202809113029091140272
:101900000E94C80380910F029091100282339105CA
:1019100071F480916D0290916E02A0916F02B0916E
:1019200070020197A105B10509F071C02EC08B347A
:10193000910509F03FC080916D0290916E02A091D7
:101940006F02B09170020197A105B10589F08092F4
:10195000690290926A02A0926B02B0926C0280922D
:101960006D0290926E02A0926F02B092700285C1D9
:101970008091690290916A02A0916B02B0916C0211
:10198000892B8A2B8B2B09F078C1409269025092E7
:101990006A0260926B0270926C0240926D025092E9
:1019A0006E0260926F027092700286E090E0A0E09A
:1019B000B0E0ECC084369105D9F580916D0290912C
:1019C0006E02A0916F02B09170020197A105B1055E
:1019D00089F44092690250926A0260926B0270929E
:1019E0006C0240926D0250926E0260926F02709291
:1019F000700243C18091690290916A02A0916B02CA
:101A0000B0916C02892B8A2B8B2B09F036C1809206
:101A1000690290926A02A0926B02B0926C0280926C
:101A20006D0290926E02A0926F02B0927002BDCFD2
:101A30008092690290926A02A0926B02B0926C024C
:101A4000B4CF8091690290916A02A0916B02B0912B
:101A50006C02892B8A2B8B2B09F00FC19CD96093C8
:101A6000520370935303809354039093550387E07C
:101A700090E0A0E0B0E080937F0290938002A0937A
:101A80008102B093820210927102F7C084D9C09093
:101A90005203D0905303E0905403F0905503DC01BF
:101AA000CB018C199D09AE09BF09C0906502D09089
:101AB0006602E0906702F0906802C816D906EA064E
:101AC000FB0608F0DAC01092910288E090E0A0E0F6
:101AD000B0E05CC040917702509178026091790249
:101AE00070917A028091610290916202A0916302EA
:101AF000B0916402840F951FA61FB71F80937302D5
:101B000090937402A0937502B093760221E0209323
:101B10007202B7FF08C01092730210927402109202
:101B200075021092760260910B0270910C02809106
:101B30000D0290910E022ED20E94D30383E090E01A
:101B4000A0E0B0E023C040917B0250917C02609104
:101B50007D0270917E028091730290917402A09137
:101B60007502B0917602481759076A077B0709F09A
:101B700084C011D960935603709357038093580320
:101B80009093590384E090E0A0E0B0E080937F025E
:101B900090938002A0938102B09382026EC0FBD822
:101BA000C0905603D0905703E0905803F09059032B
:101BB000DC01CB018C199D09AE09BF09C0905D0203
:101BC000D0905E02E0905F02F0906002C816D906E5
:101BD000EA06FB0608F051C080927F0290928002D4
:101BE000A0928102B092820248C0809169029091D5
:101BF0006A02A0916B02B0916C02892B8A2B8B2B0D
:101C0000E1F5109273021092740210927502109214
:101C1000760281E08093720260E070E088E291E4F5
:101C20000E94D30310927F021092800210928102D0
:101C30001092820222C040917B0250917C026091FE
:101C40007D0270917E028091730290917402A09146
:101C50007502B0917602481759076A077B0769F445
:101C600080910A02811109C081E080930A0260E03C
:101C700070E082ED92E40E94D3030E948E0217CAA4
:101C8000E1EBF2E01382128288EE93E0A0E0B0E094
:101C900084839583A683B7838DE192E091838083CB
:101CA00085EC90E09587848784EC90E09787868721
:101CB00080EC90E0918B808B81EC90E0938B828B19
:101CC00082EC90E0958B848B86EC90E0978B868BF2
:101CD000118E128E138E148E5ED8609356037093FD
:101CE0005703809358039093590355D86093520338
:101CF00070935303809354039093550380E090E0D6
:101D0000A0E7B1E480934E0390934F03A093500358
:101D1000B093510308951F93FC0199278827BC01B4
:101D2000E89411911032E9F3193010F01E30C8F325
:101D30001B3249F01D3241F4689405C012D0610F86
:101D4000711D811D911D119110531A30B8F33EF48D
:101D500090958095709561957F4F8F4F9F4F1F9104
:101D60000895592F482F372F262F660F771F881F6A
:101D7000991F660F771F881F991F620F731F841F9B
:101D8000951F660F771F881F991F08955058BB270E
:101D9000AA270ED075C166D130F06BD120F031F496
:101DA0009F3F11F41EF45BC10EF4E095E7FB51C1B7
:101DB000E92F77D180F3BA17620773078407950775
:101DC00018F071F49EF58FC10EF4E0950B2EBA2F2A
:101DD000A02D0B01B90190010C01CA01A001112431
:101DE000FF27591B99F0593F50F4503E68F11A16DD
:101DF000F040A22F232F342F4427585FF3CF46956E
:101E000037952795A795F0405395C9F77EF41F168F
:101E1000BA0B620B730B840BBAF09150A1F0FF0F59
:101E2000BB1F661F771F881FC2F70EC0BA0F621F45
:101E3000731F841F48F4879577956795B795F79535
:101E40009E3F08F0B3CF9395880F08F09927EE0FC7
:101E5000979587950895D9D008F481E008950CD01E
:101E60000FC107D140F0FED030F021F45F3F19F0F0
:101E7000F0C0511139C1F3C014D198F39923C9F3BB
:101E80005523B1F3951B550BBB27AA276217730780
:101E9000840738F09F5F5F4F220F331F441FAA1F34
:101EA000A9F333D00E2E3AF0E0E830D091505040F4
:101EB000E695001CCAF729D0FE2F27D0660F771FA2
:101EC000881FBB1F261737074807AB07B0E809F084
:101ED000BB0B802DBF01FF2793585F4F2AF09E3F19
:101EE000510568F0B6C000C15F3FECF3983EDCF3EB
:101EF000869577956795B795F7959F5FC9F7880F92
:101F0000911D9695879597F90895E1E0660F771FE3
:101F1000881FBB1F621773078407BA0720F0621B74
:101F2000730B840BBA0BEE1F88F7E095089504D06D
:101F30006894B111D9C00895BCD088F09F5790F033
:101F4000B92F9927B751A0F0D1F0660F771F881FDE
:101F5000991F1AF0BA95C9F712C0B13081F0C3D0F9
:101F6000B1E00895C0C0672F782F8827B85F39F097
:101F7000B93FCCF3869577956795B395D9F73EF43D
:101F800090958095709561957F4F8F4F9F4F0895E5
:101F9000E89409C097FB3EF4909580957095619503
:101FA0007F4F8F4F9F4F9923A9F0F92F96E9BB27B9
:101FB0009395F695879577956795B795F111F8CF35
:101FC000FAF4BB0F11F460FF1BC06F5F7F4F8F4FA0
:101FD0009F4F16C0882311F096E911C0772321F096
:101FE0009EE8872F762F05C0662371F096E8862F2E
:101FF00070E060E02AF09A95660F771F881FDAF785
:10200000880F9695879597F90895990F0008550FB1
:10201000AA0BE0E8FEEF16161706E807F907C0F06E
:1020200012161306E407F50798F0621B730B840B76
:10203000950B39F40A2661F0232B242B252B21F450
:1020400008950A2609F4A140A6958FEF811D811DF0
:10205000089597F99F6780E870E060E008959FEF2A
:1020600080EC089500240A9416161706180609062F
:10207000089500240A9412161306140605060895FE
:10208000092E0394000C11F4882352F0BB0F40F486
:10209000BF2B11F460FF04C06F5F7F4F8F4F9F4FC6
:1020A000089557FD9058440F551F59F05F3F71F048
:1020B0004795880F97FB991F61F09F3F79F08795AF
:1020C0000895121613061406551FF2CF4695F1DF38
:1020D00008C0161617061806991FF1CF86957105C8
:1020E000610508940895E894BB2766277727CB01FC
:1020F00097F908950BD0C4CFB5DF28F0BADF18F0F8
:10210000952309F0A6CFABCF1124EECFCADFA0F301
:10211000959FD1F3950F50E0551F629FF001729F7C
:10212000BB27F00DB11D639FAA27F00DB11DAA1F9B
:10213000649F6627B00DA11D661F829F2227B00DE8
:10214000A11D621F739FB00DA11D621F839FA00D73
:10215000611D221F749F3327A00D611D231F849FC3
:10216000600D211D822F762F6A2F11249F5750401A
:102170008AF0E1F088234AF0EE0FFF1FBB1F661FB5
:10218000771F881F91505040A9F79E3F510570F06E
:1021900060CFAACF5F3FECF3983EDCF3869577954E
:1021A0006795B795F795E7959F5FC1F7FE2B880F69
:1021B000911D9695879597F90895EE0FFF1F881F3B
:1021C0008BBF0790F691E02D199481E090E0F89490
:1021D000DBC20F931F93CF93DF93CDB7DEB72E975C
:1021E0000FB6F894DEBF0FBECDBF0E891F8986E003
:1021F0008C831A8309838FEF9FE79E838D83AE01C3
:10220000465E5F4F688D798DCE01019610D0EF81CB
:10221000F885E00FF11F10822E960FB6F894DEBFFE
:102220000FBECDBFDF91CF911F910F9108952F92D7
:102230003F924F925F926F927F928F929F92AF9256
:10224000BF92CF92DF92EF92FF920F931F93CF93A3
:10225000DF93CDB7DEB72B970FB6F894DEBF0FBE76
:10226000CDBF6C017B018A01FC011782168283813C
:1022700081FFBFC1CE0101963C01F6019381F701B8
:1022800093FD859193FF81917F01882309F4ADC16E
:10229000853239F493FD859193FF81917F018532D9
:1022A00021F4B60190E0D6D1E8CF912C212C312C2D
:1022B000FFE1F315D8F08B3279F038F4803279F001
:1022C0008332A1F4232D20611DC08D3261F0803353
:1022D00069F4232D216016C0832D8260382EE32DF2
:1022E000E4603E2E2AC0F32DF8601DC037FC2DC0DF
:1022F00020ED280F2A3040F08E32B9F436FC75C13B
:10230000232D2064322E19C036FE06C08AE0989E26
:10231000200D1124922E11C0EAE02E9E200D1124D2
:10232000222EF32DF0623F2E08C08C3621F4832D2F
:102330008068382E02C0883641F4F70193FD8591FC
:1023400093FF81917F018111B3CF982F9F7D955489
:10235000933028F40C5F1F4F9FE399830DC08336A1
:1023600031F0833771F0833509F055C020C0F80192
:10237000808189830E5F1F4F88248394912C5301A1
:1023800012C02801F2E04F0E511CF801A080B1806C
:1023900036FE03C0692D70E002C06FEF7FEFC5010C
:1023A0004ED14C018201F32DFF773F2E15C028013D
:1023B00022E0420E511CF801A080B18036FE03C01D
:1023C000692D70E002C06FEF7FEFC5012DD14C0188
:1023D000F32DF0683F2E820133FC19C0822D90E06E
:1023E00088169906A0F4B60180E290E033D12A94D1
:1023F000F5CFF50137FC859137FE81915F01B6017C
:1024000090E028D121102A9421E0821A91088114A9
:10241000910479F7E1C0843611F0893639F5F80175
:1024200037FE07C060817181828193810C5F1F4FED
:1024300008C060817181072E000C880B990B0E5F1C
:102440001F4FF32DFF763F2E97FF09C09095809583
:10245000709561957F4F8F4F9F4FF0683F2E2AE018
:1024600030E0A30133D1882E861844C0853731F47B
:10247000232D2F7EB22E2AE030E025C0932D997FA8
:10248000B92E8F36C1F018F4883579F0AEC0803798
:1024900019F0883721F0A9C0E92FE061BE2EB4FE03
:1024A0000DC0FB2DF460BF2E09C034FE0AC0292FD9
:1024B0002660B22E06C028E030E005C020E130E002
:1024C00002C020E132E0F801B7FE07C060817181EF
:1024D000828193810C5F1F4F06C06081718180E013
:1024E00090E00E5F1F4FA301F1D0882E8618FB2DC0
:1024F000FF773F2E36FE0DC0232D2E7FA22E89148E
:1025000058F434FE0BC032FC09C0832D8E7EA82EF9
:1025100005C0B82CA32C03C0B82C01C0B92CA4FE54
:102520000FC0FE01E80DF11D8081803321F49A2D4A
:10253000997EA92E09C0A2FE06C0B394B39404C02C
:102540008A2D867809F0B394A3FC10C0A0FE06C0C3
:10255000B21480F4280C922C9B180DC0B21458F4BD
:10256000B60180E290E076D0B394F8CFB21418F4BC
:102570002B1802C0982C212CA4FE0FC0B60180E3BA
:1025800090E068D0A2FE16C0A1FC03C088E790E0EE
:1025900002C088E590E0B6010CC08A2D867851F023
:1025A000A1FE02C08BE201C080E2A7FC8DE2B60171
:1025B00090E050D0891430F4B60180E390E04AD026
:1025C0009A94F8CF8A94F301E80DF11D8081B60149
:1025D00090E040D08110F6CF222009F44ECEB60113
:1025E00080E290E037D02A94F7CFF6018681978178
:1025F00002C08FEF9FEF2B960FB6F894DEBF0FBE91
:10260000CDBFDF91CF911F910F91FF90EF90DF90A1
:10261000CF90BF90AF909F908F907F906F905F9082
:102620004F903F902F900895FC01059061507040AD
:102630000110D8F7809590958E0F9F1F0895FC018B
:102640006150704001900110D8F7809590958E0FE1
:102650009F1F08950F931F93CF93DF93FB01238157
:1026600021FD03C08FEF9FEF2CC022FF16C04681D3
:102670005781248135814217530744F4A081B181E9
:102680009D012F5F3F4F318320838C9326813781BB
:102690002F5F3F4F3783268314C08B01EC01FB0172
:1026A0000084F185E02D1995892BE1F6D801169665
:1026B0008D919C911797019617969C938E931697E0
:1026C000CE01DF91CF911F910F910895FA01AA27B2
:1026D000283051F1203181F1E8946F936E7F6E5F65
:1026E0007F4F8F4F9F4FAF4FB1E03ED0B4E03CD013
:1026F000670F781F891F9A1FA11D680F791F8A1FF6
:10270000911DA11D6A0F711D811D911DA11D20D05C
:1027100009F468943F912AE0269F11243019305D16
:102720003193DEF6CF010895462F4770405D419307
:10273000B3E00FD0C9F7F6CF462F4F70405D4A3354
:1027400018F0495D31FD4052419302D0A9F7EACF1C
:10275000B4E0A6959795879577956795BA95C9F74B
:1027600000976105710508959B01AC010A2E06943E
:102770005795479537952795BA95C9F7620F731FF7
:0C278000841F951FA01D0895F894FFCF42
:10278C0001004B00000088130000014B00000032D8
:10279C0000000020414B0000000000000021028BD3
:1027AC0001B9016D02EA01C801DC01000020410001
:0827BC0000164325376C640090
:00000001FF
