:1000000075C10000A3C10000A1C100009FC1000094
:100010009DC100009BC1000099C1000097C1000074
:1000200095C1000093C1000091C100008FC1000084
:100030008DC100008BC1000089C1000087C1000094
:1000400085C1000083C1000081C100007FC10000A4
:10005000A9C700007BC1000079C10000FAC60000FA
:1000600075C1000069C700003EC700006FC10000F5
:100070006DC100006BC1000069C1000067C10000D4
:1000800065C1000063C1000061C100005FC10000E4
:100090005DC100005BC1000059C1000057C10000F4
:1000A00055C1000053C1000051C100004FC1000004
:1000B0004DC100004BC1000049C1000047C1000014
:1000C00045C1000043C1000041C100003FC1000024
:1000D0003DC100003BC1000039C1000037C1000034
:1000E00035C100002F023202210225022B026902D3
:1000F00036023A024002440248024E0252025602BE
:1001000069025C0260026402410A8B0C8B0C8B0C4E
:100110008B0C8B0C8B0C8B0C8B0C8B0C8B0C8B0C27
:100120008B0C8B0C8B0C8B0C8B0C8B0C8B0C8B0C17
:100130008B0C8B0C8B0C8B0C8B0C8B0C8B0C8B0C07
:100140008B0CAB098B0C4E0A8B0C7D0A8E0A9F0A16
:10015000E70A8B0C8B0C170B290B4C0B8B0C6F0BC2
:100160008B0C8B0C8B0CCF0BF50B010C8B0C8B0CB5
:10017000170C390C8B0C5B0C8B0C8B0C8B0C8B0CBD
:100180008B0C8B0C8B0C4E0A8B0C7D0A8E0A9F0AF3
:10019000E70A8B0C8B0C170B290B4C0B8B0C6F0B82
:1001A0008B0C8B0C8B0CCF0BF50B010C8B0C8B0C75
:1001B000170C390C8B0C5B0C9F0EEB0C410D6A0D70
:1001C000CA0E9B0DEF0D180E510E000021002400E9
:1001D00027002A002D003000330001010000040137
:1001E00007010A0100002200250028002B002E0034
:1001F0003100340002010000050108010B0100007C
:1002000020002300260029002C002F0032000001CE
:100210000000030106010901050505050705080899
:100220000808020202020A0A080804040404010180
:100230000101010101010303030303030303040795
:1002400007070C0C0C0C0C0C0C0C0202020206062C
:100250000606060606060B0B0B0B0B0B0B0B01021F
:1002600010202008081020401020408002010201C8
:100270000804020101020408102040808040201080
:1002800008040201800402018040201008040201D9
:100290000804020101020408102040800102040841
:1002A0001020408000000A0B02090C0D0E08070305
:1002B0000401000000000000000000000000000039
:1002C000000000000000000000000000000000002E
:1002D00012111000000000000000000000000000EB
:1002E00000000000000000000000FD0711241FBEF8
:1002F000CFEFD1E2DEBFCDBF00E00CBF12E0A0E047
:10030000B2E0EEEBF8E200E00BBF02C007900D9206
:10031000A633B107D9F723E0A6E3B2E001C01D92EE
:10032000A436B207E1F711E0C6E7D1E000E006C06D
:1003300021970109802FFE010E943B11C537D1078B
:1003400080E00807A9F798D60C945D1459CEDC011B
:10035000CB0163E0880F991FAA1FBB1F6A95D1F7D5
:10036000009721E0A207B10514F421E00DC053E08D
:10037000B595A795979587955A95D1F7009721E060
:10038000A207B10524F422E02093BB0231C043E070
:10039000B595A795979587954A95D1F7009721E050
:1003A000A207B10514F423E0EFCF32E0B595A7958D
:1003B000979587953A95D1F7009721E0A207B10567
:1003C00014F424E0E1CF22E0B595A79597958795A1
:1003D0002A95D1F7009721E0A207B10514F425E092
:1003E000D3CF85E08093BB028FEF9FEFA0E0B0E01A
:1003F0002FB72093BC02F8949093BA028093B9026D
:1004000090938700809386008091BC028FBF80917B
:100410008100887F80938100909181008091BB0250
:10042000892B80938100089590E0FC013197E2319F
:10043000F10508F04EC08827EE58FF4F8F4F0C94FF
:100440003B11809180008F7703C0809180008F7D69
:1004500080938000089580918000877FF9CF84B5D4
:100460008F7702C084B58F7D84BD08958091B000E0
:100470008F7703C08091B0008F7D8093B000089586
:10048000809190008F7707C0809190008F7D03C08E
:1004900080919000877F8093900008958091A000C4
:1004A0008F7707C08091A0008F7D03C08091A0004E
:1004B000877F8093A0000895809120018F7707C0E7
:1004C000809120018F7D03C080912001877F8093E0
:1004D00020010895CF93DF93282F30E0F901EC55E8
:1004E000FD4F8491F901E25AFD4FD491F901E85E84
:1004F000FD4FC491CC2389F0811196DFEC2FF0E001
:10050000EE0FFF1FE250FE4FA591B491EC91ED2349
:1005100081E090E021F480E002C080E090E0DF9193
:10052000CF9108951F93CF93DF93282F30E0F901E7
:10053000EC55FD4F8491F901E25AFD4FD491F90138
:10054000E85EFD4FC491CC23B9F0162F81116CDF0A
:10055000EC2FF0E0EE0FFF1FEC51FE4FA591B49190
:100560009FB7F894111104C08C91D095D82302C084
:10057000EC91DE2BDC939FBFDF91CF911F9108950B
:10058000CF93DF9390E0FC01E25AFD4F2491FC01F0
:10059000E85EFD4F8491882361F190E0880F991FF8
:1005A000FC01E653FE4FC591D491FC01EC51FE4F86
:1005B000A591B491611109C09FB7F89488812095E5
:1005C00082238883EC912E230BC0623061F49FB7A5
:1005D000F8948881322F309583238883EC912E2BD9
:1005E0002C939FBF06C08FB7F894E8812E2B2883E9
:1005F0008FBFDF91CF9108952FB7F8946091B50226
:100600007091B6028091B7029091B8022FBF089501
:10061000CF92DF92EF92FF920F931F93CF93DF93CE
:100620006C017A018B01C0E0D0E0CE15DF0581F0CE
:10063000D8016D918D01D601ED91FC910190F08171
:10064000E02DC6011995892B11F02196EECF7E0180
:10065000C701DF91CF911F910F91FF90EF90DF9035
:10066000CF900895089580E090E00895FC01538DA7
:10067000448D252F30E0842F90E0821B930B54177C
:1006800010F0CF96089501970895FC01918D828D09
:10069000981761F0828DDF01A80FB11D5D968C91D6
:1006A000928D9F5F9F73928F90E008958FEF9FEFE1
:1006B0000895FC01918D828D981731F0828DE80F9D
:1006C000F11D858D90E008958FEF9FEF0895FC0157
:1006D000918D228D892F90E0805C9F4F821B910924
:1006E0008F73992708958FEB92E0F1DF21E0892B3A
:1006F00009F420E0822F0895FC01848DDF01A80F0A
:10070000B11DA35ABF4F2C91848D90E001968F7339
:100710009927848FA689B7892C93A089B1898C9158
:10072000837080648C93938D848D981306C00288A7
:10073000F389E02D80818F7D80830895EF92FF9271
:100740000F931F93CF93DF93EC0181E0888F9B8DF4
:100750008C8D981305C0E889F989808185FD25C0B5
:10076000F62E0B8D10E00F5F1F4F0F731127E02E39
:100770008C8DE8120BC00FB607FCFACFE889F98917
:10078000808185FFF5CFCE01B7DFF2CF8B8DFE01E3
:10079000E80FF11DE35AFF4FF0829FB7F8940B8FDB
:1007A000EA89FB89808180620AC09FB7F894EE894C
:1007B000FF896083E889F989808183708064808300
:1007C0009FBF81E090E0DF91CF911F910F91FF904B
:1007D000EF900895CF93DF93EC01888D8823C1F0CB
:1007E000EA89FB89808185FD05C0A889B9898C913A
:1007F00086FD0EC00FB607FCF5CF808185FFF2CFD6
:10080000A889B9898C9185FFEDCFCE0175DFE8CF3E
:10081000DF91CF91089580E090E0892B19F063DF9C
:10082000811125C080E090E0892B41F080E090E0CC
:10083000892B21F00E94000081111CC080E090E013
:10084000892B41F080E090E0892B21F00E9400008C
:10085000811113C080E090E0892BA1F080E090E04E
:10086000892B81F00E94000081110AC008950E9426
:100870000000D8CF0E940000E1CF0E940000EACF24
:100880000C94000008958091460290914702A09137
:100890004802B0914902892B8A2B8B2B81F461E0AD
:1008A00083E040DE81E090E0A0E0B0E0809346028B
:1008B00090934702A0934802B09349020BC060E0B6
:1008C00083E030DE109246021092470210924802F6
:1008D000109249028091420290914302A0914402F9
:1008E000B09145020196A11DB11D809342029093E3
:1008F0004302A0934402B093450208959B01AC01CA
:1009000060E070E882E995E40E94710F0E94D90FBF
:100910001ECD9B01AC0160E07CE782E996E40E9479
:10092000710F0E94D90F13CDCF92DF92EF92FF92F9
:100930006B017C018091360290913702A0913802C0
:10094000B09139026C2D892B8A2B8B2BA9F486E070
:10095000E9DD61E084E0E6DD61E085E0E3DD81E0A2
:1009600090E0A0E0B0E08093360290933702A0932D
:100970003802B09339022CC086E0D4DD61E084E017
:10098000D1DD60E085E0CEDD1092360210923702B4
:100990001092380210923902809178029091790277
:1009A000A0917A02B0917B02CA94CD28CE28CF289C
:1009B00021F40197A109B10903C00196A11DB11D40
:1009C0008093780290937902A0937A02B0937B028D
:1009D000FF90EF90DF90CF9008958F929F92AF920B
:1009E000BF92CF92DF92EF92FF92C0908002D090A0
:1009F0008102E0908202F0908302C114D104E104EC
:100A0000F10409F4B1C082E08093960221E0C2169D
:100A1000D104E104F10409F049C060E083DD86E31C
:100A200059DD892B21F18091460290914702A091D6
:100A30004802B0914902892B8A2B8B2B61F461E02B
:100A400083E070DDC0924602D0924702E0924802F5
:100A5000F0924902F3C160E083E064DD1092460247
:100A6000109247021092480210924902E7C1809109
:100A7000840290918502A0918602B0918702892B11
:100A80008A2B8B2B11F410929602109280021092F6
:100A900081021092820210928302109242021092FE
:100AA00043021092440210924502C8C182E0C81667
:100AB000D104E104F104C1F561E082E033DD40914D
:100AC000420250914302609144027091450280912C
:100AD000020290910302A0910402B091050248170E
:100AE00059076A077B074CF4FF90EF90DF90CF9097
:100AF000BF90AF909F908F90C6CE809184029091CE
:100B00008502A0918602B0918702892B8A2B8B2BBC
:100B100011F41092960210928002109281021092AB
:100B20008202109283028AC124E0C216D104E10439
:100B3000F10409F083C161E082E0F4DC80914202BB
:100B400090914302A0914402B091450280369A4EA2
:100B5000A105B105F4F6FF90EF90DF90CF90BF9024
:100B6000AF909F908F908FCEC0907C02D0907D02EE
:100B7000E0907E02F0907F02C114D104E104F10400
:100B800009F4BAC083E08093960281E0C816D104CC
:100B9000E104F10409F08BC061E089E0C3DC8091DD
:100BA000000290910102892B09F051C080903A0215
:100BB00090903B02A0903C02B0903D02811422EE46
:100BC000920624E0A206B1048CF580913E02909139
:100BD0003F02A0914002B0914102892B8A2B8B2BBE
:100BE00061F461E088E09EDCC0923E02D0923F0258
:100BF000E0924002F09241020BC060E088E092DC9B
:100C000010923E0210923F02109240021092410256
:100C10008FEF881A980AA80AB80A80923A0290922E
:100C20003B02A0923C02B0923D0208C11092960293
:100C300010927C0210927D0210927E0210927F022E
:100C400081E090E09093010280930002F7C060E0A1
:100C500089E068DC8CE33EDC892B09F440C080919C
:100C60003E0290913F02A0914002B0914102892B37
:100C70008A2B8B2B81F461E088E054DC81E090E0EA
:100C8000A0E0B0E080933E0290933F02A093400228
:100C9000B0934102D3C060E088E044DC10923E0291
:100CA00010923F021092400210924102C7C022E00F
:100CB000C216D104E104F10409F0C0C060E089E08B
:100CC00031DC8CE307DC892B51F6109296021092EE
:100CD0007C0210927D0210927E0210927F0210928E
:100CE0003A0210923B0210923C0210923D02109286
:100CF000010210920002A2C080914A0290914B0220
:100D0000A0914C02B0914D02181619061A061B0646
:100D1000CCF482309105A105B10509F440C08330BF
:100D20009105A105B10509F458C00197A105B105C8
:100D300009F084C087E3CEDB892B71F560E070E0B9
:100D4000CB0135C080916F02882309F477C081E020
:100D500080939602409178025091790260917A02D4
:100D600070917B028091700290917102A091720249
:100D7000B091730284179507A607B707A4F0481728
:100D800059076A077B07D4F210926F0280915402D0
:100D90008656823008F052C0109296024FC087E308
:100DA00099DB892B69F061E070E080E090E0FF90D2
:100DB000EF90DF90CF90BF90AF909F908F90B4CD89
:100DC00083E090E0A0E0B0E080934A0290934B0271
:100DD000A0934C02B0934D0231C087E37BDB892B9B
:100DE00009F4ACCF80910A0290910B02A0910C0201
:100DF000B0910D028093780290937902A0937A02C9
:100E0000B0937B028093700290937102A093720260
:100E1000B093730210924A0210924B0210924C024D
:100E200010924D0281E090E0A0E0B0E0809380025B
:100E300090938102A0938202B0938302FF90EF907F
:100E4000DF90CF90BF90AF909F908F9008950E94B9
:100E50007E111F920F920FB60F9211242F933F9382
:100E60008F939F93AF93BF938091B5029091B602F9
:100E7000A091B702B091B8023091B40223E0230FE1
:100E80002D3720F40196A11DB11D05C026E8230FC2
:100E90000296A11DB11D2093B4028093B5029093D8
:100EA000B602A093B702B093B8028091B0029091BD
:100EB000B102A091B202B091B3020196A11DB11D81
:100EC0008093B0029093B102A093B202B093B302A8
:100ED000BF91AF919F918F913F912F910F900FBE36
:100EE0000F901F9018951F920F920FB60F9211241A
:100EF0000BB60F922F933F934F935F936F937F9314
:100F00008F939F93AF93BF93EF93FF938FEB92E0F9
:100F1000F3DBFF91EF91BF91AF919F918F917F9103
:100F20006F915F914F913F912F910F900BBE0F905A
:100F30000FBE0F901F9018951F920F920FB60F9231
:100F400011240BB60F922F938F939F93EF93FF93E0
:100F5000E091CF02F091D0028081E091D502F09132
:100F6000D60282FD12C090818091D8028F5F8F736C
:100F70002091D902821751F0E091D802F0E0E154BB
:100F8000FD4F958F8093D80201C08081FF91EF9132
:100F90009F918F912F910F900BBE0F900FBE0F90CE
:100FA0001F9018951F920F920FB60F9211240BB637
:100FB0000F922F933F934F935F936F937F938F93F2
:100FC0009F93AF93BF93EF93FF93E091BD02F09196
:100FD000BE021995FF91EF91BF91AF919F918F91B3
:100FE0007F916F915F914F913F912F910F900BBE29
:100FF0000F900FBE0F901F901895EFEBF2E0138249
:10100000128288EE93E0A0E0B0E084839583A6830B
:10101000B78383E292E09183808385EC90E09587AB
:10102000848784EC90E09787868780EC90E0918BB2
:10103000808B81EC90E0938B828B82EC90E0958B9F
:10104000848B86EC90E0978B868B118E128E138E9C
:10105000148ED2DA6093600370936103809362030D
:1010600090936303C9DA60935C0370935D0380938C
:101070005E0390935F030895789484B5826084BD85
:1010800084B5816084BD85B5826085BD85B581608C
:1010900085BD80916E00816080936E00109281000A
:1010A00080918100826080938100809181008160C5
:1010B0008093810080918000816080938000809186
:1010C000B10084608093B1008091B0008160809312
:1010D000B000809191008260809391008091910096
:1010E0008160809391008091900081608093900056
:1010F0008091A10082608093A1008091A100816015
:101100008093A1008091A00081608093A0008091D5
:10111000210182608093210180912101816080936F
:1011200021018091200181608093200180917A00CB
:10113000846080937A0080917A00826080937A0044
:1011400080917A00816080937A0080917A00806833
:1011500080937A001092C10060E087E311DA61E0C9
:1011600087E3E0D961E083E00BDA61E082E008DA4E
:1011700061E08AE005DA61E08AE0D4D961E084E0E8
:10118000FFD961E085E0FCD961E086E0F9D961E052
:1011900088E0F6D961E089E0F3D961E087E0F0D931
:1011A00061E087E0BFD960E08CE3EAD961E08CE3DD
:1011B000B9D960E086E3E4D961E086E3B3D961E0C0
:1011C0008DE3DED960E08DE3ADD910929F028FEF01
:1011D00080939602E091CF02F091D00282E080836A
:1011E000E091CB02F091CC021082E091CD02F0911F
:1011F000CE028FEC80831092D702E091D302F0915F
:10120000D40286E08083E091D102F091D202808105
:1012100080618083E091D102F091D2028081886068
:101220008083E091D102F091D20280818068808336
:10123000E091D102F091D20280818F7D8083109263
:10124000800080E18093810068E270E080E090E0BF
:101250007ED88DEE94E09093BE028093BD0281E033
:1012600080936F00909181008091BB02892B8093C5
:10127000810081E3282E82E0382E08E512E092E01A
:10128000492E512C612C712C812C912C540183946A
:10129000C2E0D0E08FEB92E01ADA181619060CF0D3
:1012A00088C38FEB92E0F1D92091AE023091AF026A
:1012B000F901EE55FD4F80832F5F3F4F3093AF0212
:1012C0002093AE0222303105A4F0319790819A3FED
:1012D00081F4853571F42230310559F09093A202E2
:1012E0008093A302D093AF02C093AE0281E08093BB
:1012F000A0028091AE029091AF020C970CF459C3FA
:101300001092AF021092AE028091A2028A3F09F0C1
:1013100050C38091A302853509F04BC38CE0E2EA0B
:10132000F2E0A8E8B2E001900D928A95E1F78BE82F
:1013300092E033D56B017C01E0918A028E2F90E020
:10134000FC01B397E835F10508F0E5C28827EC57B2
:10135000FF4F8F4F90C780911202882309F4DBC2A0
:1013600080E480935402C601D0925302C09252028C
:10137000009709F4D0C28330910591F460E070E0E9
:1013800086EE92E4BBDA10925302109252028092DF
:10139000800290928102A0928202B092830243C0A6
:1013A00084309105B1F460E070E086EE92E4A6DA54
:1013B000109253021092520284E090E0A0E0B0E05C
:1013C0008093800290938102A0938202B093830263
:1013D0002AC08530910599F460E570E080E090E0E6
:1013E0000E94A701109253021092520280927C0236
:1013F00090927D02A0927E02B0927F0214C0069766
:1014000091F460E570E080E090E00E94A701109206
:1014100053021092520240927C0250927D026092DE
:101420007E0270927F028091520290915302873027
:10143000910591F460E070E086EE92E45FDA10923C
:101440005302109252028092800290928102A092E6
:101450008202B09283025FC2089709F05CC260E02A
:1014600070E086EE92E44ADA109253021092520231
:1014700040928002509281026092820270928302B6
:101480004AC283E280935402CD28CE28CF2811F49B
:1014900060E001C061E08DE345D83DC282E6809303
:1014A00054021092120210924E0210924F021092A9
:1014B000500210925102C0927402D0927502E092D2
:1014C0007602F09277028092840290928502A09236
:1014D0008602B0928702609113027091140280918B
:1014E0001502909116020ADA80928002909281028F
:1014F000A0928202B09283024EC191E6C9169AEE82
:10150000D906E104F10408F006C2C0926302D09249
:101510006402E0926502F0926602FDC1A1E6CA167D
:10152000AAEEDA06E104F10408F0F5C1C0926B02FC
:10153000D0926C02E0926D02F0926E02ECC186E6EF
:101540008093540260E070E086E993E4E2D910925F
:1015500012028091740290917502A0917602B0916E
:10156000770280934E0290934F02A0935002B09363
:101570005102C0927402D0927502E0927602F0920B
:10158000770280910A0290910B02A0910C02B09117
:101590000D028C159D05AE05BF0564F0BCE0CB16B1
:1015A000BEEFDB06BFEFEB06FB0664F48CE09EEFBC
:1015B000AFEFBFEF8093740290937502A093760211
:1015C000B093770288E090E0A0E0B0E0CBC087E67F
:1015D00080935402C0927002D0927102E092720223
:1015E000F092730280910A0290910B02A0910C027A
:1015F000B0910D028C159D05AE05BF0564F09CE011
:10160000C9169EEFD9069FEFE906F90664F48CE04F
:101610009EEFAFEFBFEF8093700290937102A093A3
:101620007202B093730281E080936F02B5C091EFB4
:10163000C91699E4D90692E0E906F10408F06BC1F5
:10164000C0926702D0926802E0926902F0926A0248
:1016500062C1A5E6CA16D104E104F10408F05BC139
:10166000C701B601D9D420E030E048EC52E439D4C7
:1016700020E030E845E953E47FD520E030E040E861
:101680005FE3C7D396D460931702709318028093D8
:10169000190290931A023FC1B5E6CB16D104E104BA
:1016A000F10408F038C1C701B601B6D420E030E03B
:1016B00048EC52E416D420E030E845E953E45CD528
:1016C00020E030E040E85FE3A4D373D460931B02D2
:1016D00070931C0280931D0290931E021CC18EE623
:1016E00080935402109212028091740290917502BC
:1016F000A0917602B091770240914E0250914F0234
:10170000609150027091510280934E0290934F026B
:10171000A0935002B0935102C816D906EA06FB0600
:101720004CF0C0927402D0927502E0927602F09270
:10173000770214C09C01241B350BA901052E000C57
:10174000660B770B840F951FA61FB71F809374023B
:1017500090937502A0937602B093770285E090E0B3
:10176000A0E0B0E08093840290938502A09386026B
:10177000B09387026091060270910702809108027F
:1017800090910902BBD840928002509281026092EF
:1017900082027092830281E080939602BCC082E74D
:1017A0008093540281E08093960291E0C916D1049F
:1017B000E104F10429F460E070E082ED93E40BC0F1
:1017C000A2E0CA16D104E104F10409F0A4C060E06B
:1017D00070E088E493E49DD8C0924A02D0924B0214
:1017E000E0924C02F0924D0296C083E7809354023F
:1017F000C0920A02D0920B02E0920C02F0920D020B
:101800008AC084E780935402A0E6BAEEA70196014D
:101810003AD524E630E040E050E011D520930202B2
:1018200030930302409304025093050274C0B5E65E
:10183000CB16D104E104F10408F06DC0C701B60174
:10184000EBD320E030E048EC52E44BD320E030E032
:1018500044EE52E491D420E030E040E85FE3D9D296
:1018600060931302709314028093150290931602F2
:1018700052C025E6C216D104E104F10408F04BC0C1
:10188000C701B601C9D320E030E048EC52E429D3C7
:1018900020E030E044EE52E46FD420E030E040E855
:1018A0005FE3B7D260930602709307028093080249
:1018B0009093090230C0C701B601AED329E23CE5DE
:1018C0004FE350E459D420E030E040E85FE3A1D298
:1018D00070D36B017C01161617061806190684F4DE
:1018E0009BD320E030E046E953E4F7D2181644F0E9
:1018F000C0920E02D0920F02E0921002F0921102FA
:1019000060910E0270910F0280911002909111026D
:1019100083D30E9489042AEF2093940295E5909343
:1019200095028AE78093A102209355029093560274
:101930009091960290935702109258021092590279
:1019400010925A0210925B0210925C0210925D0299
:1019500010925E0210925F0290919F02909360023B
:101960009091A002909361028093620280917B0229
:101970008F9380917A028F93809179028F938091D7
:1019800078028F933F922F921F930F93BBD44EE018
:1019900050E065E572E08FEB92E00E940803109240
:1019A000A0028DB79EB708960FB6F8949EBF0FBEE3
:1019B0008DBF8091840290918502A0918602B091A2
:1019C00087028930910508F0E5C1FC018827E452BF
:1019D000FF4F8F4F50C48091800290918102A0915F
:1019E0008202B0918302892B8A2B8B2B09F0D2C102
:1019F00080917C0290917D02A0917E02B0917F0245
:101A0000892B8A2B8B2B09F0C5C180917402909190
:101A10007502A0917602B0917702409178025091C0
:101A2000790260917A0270917B02481759076A0720
:101A30007B07F1F08092800290928102A092820254
:101A4000B09283028093700290937102A09372020D
:101A5000B093730281E080936F0260911B027091DA
:101A60001C0280911D0290911E02D6D20E94890410
:101A700040928402509285026092860270928702A0
:101A800089C1409178025091790260917A027091F7
:101A90007B028091700290917102A0917202B091CC
:101AA0007302481759076A077B0709F073C18091D1
:101AB0006F0281116FC10E94FC0260935C037093FE
:101AC0005D0380935E0390935F0383E090E0A0E06A
:101AD000B0E028C00E94FC020E94FC020E94FC02AE
:101AE000C0905C03D0905D03E0905E03F0905F03D4
:101AF000DC01CB018C199D09AE09BF09C0906B02B6
:101B0000D0906C02E0906D02F0906E02C816D9067B
:101B1000EA06FB0608F03EC11092960284E090E0CF
:101B2000A0E0B0E08093840290938502A0938602A7
:101B3000B09387022FC18091800290918102A09181
:101B40008202B0918302892B8A2B8B2B09F022C150
:101B500080917C0290917D02A0917E02B0917F02E3
:101B6000892B8A2B8B2B09F015C14091740250915F
:101B70007502609176027091770280916702909170
:101B80006802A0916902B0916A02840F951FA61F96
:101B9000B71FB7FD09C08093700290937102A093A4
:101BA0007202B093730208C0109270021092710218
:101BB000109272021092730281E080936F02609122
:101BC0001702709118028091190290911A0224D282
:101BD0000E94890486E090E0A0E0B0E0A3CF4091AD
:101BE00078025091790260917A0270917B02809123
:101BF000700290917102A0917202B0917302481725
:101C000059076A077B0709F0C5C080916F028111EF
:101C1000C1C00E94FC0260936003709361038093D3
:101C200062039093630387E090E0A0E0B0E07ACF96
:101C30000E94FC02C0906003D0906103E0906203B8
:101C4000F0906303DC01CB018C199D09AE09BF093B
:101C5000C0906302D0906402E0906502F09066024A
:101C6000C816D906EA06FB0608F094C06091130274
:101C70007091140280911502909116020E947E04C8
:101C80008092800290928102A0928202B09283029E
:101C90008092840290928502A0928602B09287027E
:101CA00079C08091800290918102A0918202B091CE
:101CB0008302892B8A2B8B2B09F06CC080917C02CC
:101CC00090917D02A0917E02B0917F02892B8A2B98
:101CD0008B2B09F05FC08091740290917502A091E6
:101CE0007602B0917702409178025091790260912A
:101CF0007A0270917B02481759076A077B0744F400
:101D00008093700290937102A0937202B093730259
:101D100081E080936F0260911702709118028091A8
:101D2000190290911A0278D10E94890410928402BB
:101D30001092850210928602109287022BC0409169
:101D400078025091790260917A0270917B028091C1
:101D5000700290917102A0917202B09173024817C3
:101D600059076A077B07B1F480916F02811112C095
:101D70008091120281110EC081E080931202609165
:101D80000E0270910F02809110029091110244D1C5
:101D90000E9489040E940B047DCA1F93FC019927AD
:101DA0008827BC01E89411911032E9F3193010F042
:101DB0001E30C8F31B3249F01D3241F4689405C04F
:101DC00012D0610F711D811D911D119110531A3098
:101DD000B8F33EF490958095709561957F4F8F4F45
:101DE0009F4F1F910895592F482F372F262F660F89
:101DF000771F881F991F660F771F881F991F620F13
:101E0000731F841F951F660F771F881F991F0895E2
:101E10005058BB27AA270ED075C166D130F06BD1C0
:101E200020F031F49F3F11F41EF45BC10EF4E095F5
:101E3000E7FB51C1E92F77D180F3BA176207730727
:101E40008407950718F071F49EF58FC10EF4E095A4
:101E50000B2EBA2FA02D0B01B90190010C01CA0164
:101E6000A0011124FF27591B99F0593F50F4503E0F
:101E700068F11A16F040A22F232F342F4427585F01
:101E8000F3CF469537952795A795F0405395C9F719
:101E90007EF41F16BA0B620B730B840BBAF09150D1
:101EA000A1F0FF0FBB1F661F771F881FC2F70EC070
:101EB000BA0F621F731F841F48F487957795679543
:101EC000B795F7959E3F08F0B3CF9395880F08F02C
:101ED0009927EE0F979587950895D9D008F481E05A
:101EE00008950CD00FC107D140F0FED030F021F49E
:101EF0005F3F19F0F0C0511139C1F3C014D198F30C
:101F00009923C9F35523B1F3951B550BBB27AA277A
:101F100062177307840738F09F5F5F4F220F331FEC
:101F2000441FAA1FA9F333D00E2E3AF0E0E830D0B8
:101F300091505040E695001CCAF729D0FE2F27D0BB
:101F4000660F771F881FBB1F261737074807AB0789
:101F5000B0E809F0BB0B802DBF01FF2793585F4FFE
:101F60002AF09E3F510568F0B6C000C15F3FECF318
:101F7000983EDCF3869577956795B795F7959F5FC3
:101F8000C9F7880F911D9695879597F90895E1E017
:101F9000660F771F881FBB1F621773078407BA0776
:101FA00020F0621B730B840BBA0BEE1F88F7E095D1
:101FB000089504D06894B111D9C00895BCD088F0B8
:101FC0009F5790F0B92F9927B751A0F0D1F0660F25
:101FD000771F881F991F1AF0BA95C9F712C0B13040
:101FE00081F0C3D0B1E00895C0C0672F782F882753
:101FF000B85F39F0B93FCCF3869577956795B3957F
:10200000D9F73EF490958095709561957F4F8F4FED
:102010009F4F0895E89409C097FB3EF490958095F2
:10202000709561957F4F8F4F9F4F9923A9F0F92F9E
:1020300096E9BB279395F695879577956795B7951C
:10204000F111F8CFFAF4BB0F11F460FF1BC06F5F02
:102050007F4F8F4F9F4F16C0882311F096E911C014
:10206000772321F09EE8872F762F05C0662371F035
:1020700096E8862F70E060E02AF09A95660F771F49
:10208000881FDAF7880F9695879597F90895990F25
:102090000008550FAA0BE0E8FEEF16161706E80732
:1020A000F907C0F012161306E407F50798F0621B53
:1020B000730B840B950B39F40A2661F0232B242B28
:1020C000252B21F408950A2609F4A140A6958FEF47
:1020D000811D811D089597F99F6780E870E060E099
:1020E00008959FEF80EC089500240A9416161706B1
:1020F00018060906089500240A94121613061406F9
:1021000005060895092E0394000C11F4882352F05B
:10211000BB0F40F4BF2B11F460FF04C06F5F7F4F13
:102120008F4F9F4F089557FD9058440F551F59F0FA
:102130005F3F71F04795880F97FB991F61F09F3FB4
:1021400079F087950895121613061406551FF2CFDD
:102150004695F1DF08C0161617061806991FF1CF2D
:1021600086957105610508940895E894BB27662754
:102170007727CB0197F908950BD0C4CFB5DF28F0AE
:10218000BADF18F0952309F0A6CFABCF1124EECF1C
:10219000CADFA0F3959FD1F3950F50E0551F629FC2
:1021A000F001729FBB27F00DB11D639FAA27F00DB0
:1021B000B11DAA1F649F6627B00DA11D661F829FD7
:1021C0002227B00DA11D621F739FB00DA11D621FBC
:1021D000839FA00D611D221F749F3327A00D611DD9
:1021E000231F849F600D211D822F762F6A2F1124BB
:1021F0009F5750408AF0E1F088234AF0EE0FFF1F0E
:10220000BB1F661F771F881F91505040A9F79E3F44
:10221000510570F060CFAACF5F3FECF3983EDCF33E
:10222000869577956795B795F795E7959F5FC1F781
:10223000FE2B880F911D9695879597F90895052E89
:1022400097FB16F400940FD057FD05D026D007FC5D
:1022500002D046F408C050954095309521953F4FE7
:102260004F4F5F4F089590958095709561957F4F82
:102270008F4F9F4F0895EE0FFF1F881F8BBF079052
:10228000F691E02D19942BD0A59F900DB49F900D41
:10229000A49F800D911D11240895A1E21A2EAA1B5E
:1022A000BB1BFD010DC0AA1FBB1FEE1FFF1FA21706
:1022B000B307E407F50720F0A21BB30BE40BF50B03
:1022C000661F771F881F991F1A9469F7609570958C
:1022D000809590959B01AC01BD01CF010895A29F0F
:1022E000B001B39FC001A39F700D811D1124911DEA
:1022F000B29F700D811D1124911D089581E090E021
:10230000F894DBC20F931F93CF93DF93CDB7DEB763
:102310002E970FB6F894DEBF0FBECDBF0E891F8972
:1023200086E08C831A8309838FEF9FE79E838D83DA
:10233000AE01465E5F4F688D798DCE01019610D05B
:10234000EF81F885E00FF11F10822E960FB6F894FA
:10235000DEBF0FBECDBFDF91CF911F910F910895CA
:102360002F923F924F925F926F927F928F929F92A5
:10237000AF92BF92CF92DF92EF92FF920F931F9393
:10238000CF93DF93CDB7DEB72B970FB6F894DEBFB0
:102390000FBECDBF6C017B018A01FC011782168242
:1023A000838181FFBFC1CE0101963C01F60193817B
:1023B000F70193FD859193FF81917F01882309F4B3
:1023C000ADC1853239F493FD859193FF81917F01F1
:1023D000853221F4B60190E0D6D1E8CF912C212CA2
:1023E000312CFFE1F315D8F08B3279F038F48032DC
:1023F00079F08332A1F4232D20611DC08D3261F06C
:10240000803369F4232D216016C0832D8260382E1D
:10241000E32DE4603E2E2AC0F32DF8601DC037FC8A
:102420002DC020ED280F2A3040F08E32B9F436FC52
:1024300075C1232D2064322E19C036FE06C08AE0F5
:10244000989E200D1124922E11C0EAE02E9E200DA0
:102450001124222EF32DF0623F2E08C08C3621F479
:10246000832D8068382E02C0883641F4F70193FD31
:10247000859193FF81917F018111B3CF982F9F7D2B
:102480009554933028F40C5F1F4F9FE399830DC040
:10249000833631F0833771F0833509F055C020C0A1
:1024A000F801808189830E5F1F4F88248394912CCB
:1024B000530112C02801F2E04F0E511CF801A08018
:1024C000B18036FE03C0692D70E002C06FEF7FEF70
:1024D000C5014ED14C018201F32DFF773F2E15C06F
:1024E000280122E0420E511CF801A080B18036FE86
:1024F00003C0692D70E002C06FEF7FEFC5012DD1E1
:102500004C01F32DF0683F2E820133FC19C0822D5F
:1025100090E088169906A0F4B60180E290E033D1ED
:102520002A94F5CFF50137FC859137FE81915F0143
:10253000B60190E028D121102A9421E0821A910856
:102540008114910479F7E1C0843611F0893639F5A8
:10255000F80137FE07C060817181828193810C5F31
:102560001F4F08C060817181072E000C880B990BEA
:102570000E5F1F4FF32DFF763F2E97FF09C09095FA
:102580008095709561957F4F8F4F9F4FF0683F2EDC
:102590002AE030E0A30133D1882E861844C0853765
:1025A00031F4232D2F7EB22E2AE030E025C0932D6A
:1025B000997FB92E8F36C1F018F4883579F0AEC006
:1025C000803719F0883721F0A9C0E92FE061BE2ECD
:1025D000B4FE0DC0FB2DF460BF2E09C034FE0AC04E
:1025E000292F2660B22E06C028E030E005C020E189
:1025F00030E002C020E132E0F801B7FE07C06081A0
:102600007181828193810C5F1F4F06C0608171814F
:1026100080E090E00E5F1F4FA301F1D0882E861856
:10262000FB2DFF773F2E36FE0DC0232D2E7FA22ED1
:10263000891458F434FE0BC032FC09C0832D8E7E01
:10264000A82E05C0B82CA32C03C0B82C01C0B92CEF
:10265000A4FE0FC0FE01E80DF11D8081803321F43E
:102660009A2D997EA92E09C0A2FE06C0B394B394F8
:1026700004C08A2D867809F0B394A3FC10C0A0FE94
:1026800006C0B21480F4280C922C9B180DC0B21412
:1026900058F4B60180E290E076D0B394F8CFB2144B
:1026A00018F42B1802C0982C212CA4FE0FC0B601E0
:1026B00080E390E068D0A2FE16C0A1FC03C088E7CA
:1026C00090E002C088E590E0B6010CC08A2D8678C3
:1026D00051F0A1FE02C08BE201C080E2A7FC8DE2B6
:1026E000B60190E050D0891430F4B60180E390E058
:1026F0004AD09A94F8CF8A94F301E80DF11D8081B5
:10270000B60190E040D08110F6CF222009F44ECEE1
:10271000B60180E290E037D02A94F7CFF6018681A7
:10272000978102C08FEF9FEF2B960FB6F894DEBF14
:102730000FBECDBFDF91CF911F910F91FF90EF9012
:10274000DF90CF90BF90AF909F908F907F906F90D1
:102750005F904F903F902F900895FC01059061503D
:1027600070400110D8F7809590958E0F9F1F0895A7
:10277000FC016150704001900110D8F78095909550
:102780008E0F9F1F08950F931F93CF93DF93FB012D
:10279000238121FD03C08FEF9FEF2CC022FF16C0C5
:1027A00046815781248135814217530744F4A08123
:1027B000B1819D012F5F3F4F318320838C93268110
:1027C00037812F5F3F4F3783268314C08B01EC0185
:1027D000FB010084F185E02D1995892BE1F6D801E4
:1027E00016968D919C911797019617969C938E93B0
:1027F0001697CE01DF91CF911F910F910895FA01A5
:10280000AA27283051F1203181F1E8946F936E7F2F
:102810006E5F7F4F8F4F9F4FAF4FB1E03ED0B4E020
:102820003CD0670F781F891F9A1FA11D680F791F61
:102830008A1F911DA11D6A0F711D811D911DA11D72
:1028400020D009F468943F912AE0269F1124301982
:10285000305D3193DEF6CF010895462F4770405D1D
:102860004193B3E00FD0C9F7F6CF462F4F70405DCC
:102870004A3318F0495D31FD4052419302D0A9F727
:10288000EACFB4E0A6959795879577956795BA9521
:10289000C9F700976105710508959B01AC010A2EE7
:1028A00006945795479537952795BA95C9F7620FBE
:0E28B000731F841F951FA01D0895F894FFCF7D
:1028BE000100409C00000000E642881300002C013D
:1028CE000000010000E6422C0100002C0100000077
:1028DE000000009E0308033603EA0367034503590D
:0628EE000325376C6400B5
:00000001FF
